:0400000058EF00F0C5
:100008005B82FACF01F0FBCF02F0D9CF03F0DACF51
:1000180004F0F2AC12EF00F014EF00F04EEF00F035
:100028009DA819EF00F01BEF00F031EF00F09EA83B
:1000380020EF00F022EF00F031EF00F002D82FEFB0
:1000480000F00500FA6E0001FD51FD6EFE51FE6ED6
:10005800FF6AFA5012004EEF00F09DAA36EF00F04A
:1000680038EF00F04EEF00F09EAA3DEF00F03FEFB2
:1000780000F04EEF00F002D84CEF00F00500FA6EE9
:1000880001017651FD6E7751FE6EFF6AFA5012003B
:100098004EEF00F004C0DAFF03C0D9FF02C0FBFF37
:0C00A80001C0FAFF5B921100F6EF6FF050
:101000000088E260E250E238D416D77CE2E0D81AD9
:10101000E312E30AE302E3FAE2F2E2EAE270E2BC9C
:10102000DA44697374616E7A203D203E343030308A
:101030006D6D2009203E343030636D0D0A00446927
:101040007374616E7A203D20252E30666D6D200907
:1010500020252E3166636D0D0A00494E46004E4133
:101060004E00696E66006E616E006C660000010ED7
:10107000276E0F0E286E270E166E000E176E000ECE
:10108000196E020E186E290E22EC6EF0EA0E276E13
:10109000CC0E286E270E166E000E176E000E196EFF
:1010A000020E186E290EC7EC6EF0000E276E000EB1
:1010B000286E000E296E270E166E000E176E000E9B
:1010C000196E030E186E290E22EC6EF0000E276EBC
:1010D000000E286E010E296E270E166E000E176E7A
:1010E000000E196E030E186E290E22EC6EF0000E23
:1010F000276EE50E286E270E166E000E176E000E78
:10110000196E020E186E290E22EC6EF0270E166E66
:10111000000E176E000E196E010E186E290EC7EC28
:101120006EF0000E276E2E0E286E270E166E000E25
:10113000176E000E196E020E186E290E22EC6EF05C
:10114000270E166E000E176E000E196E010E186E29
:10115000290EC7EC6EF0000E276E2E0E286E010EC3
:10116000296E270E166E000E176E000E196E030EF6
:10117000186E290E22EC6EF0000E276E060E286EF9
:10118000270E166E000E176E000E196E020E186EE8
:10119000290E22EC6EF0270E166E000E176E000E52
:1011A000196E020E186E290EC7EC6EF0000E276E37
:1011B000DE0E286E270E166E000E176E000E196ECC
:1011C000020E186E290E22EC6EF0270E166E000E1F
:1011D000176E000E196E020E186E290EC7EC6EF017
:1011E000000E276E240E286E0A0E296E000E2A6E3F
:1011F000270E166E000E176E000E196E040E186E76
:10120000290E22EC6EF0000E276E310E286E020EB3
:10121000296E270E166E000E176E000E196E030E45
:10122000186E290E22EC6EF0000E276E360E286E18
:10123000080E296E270E166E000E176E000E196E20
:10124000030E186E290E22EC6EF0000E276E370E7C
:10125000286E100E296E270E166E000E176E000EE9
:10126000196E030E186E290E22EC6EF0000E276E1A
:10127000390E286E010E296E270E166E000E176E9F
:10128000000E196E030E186E290E22EC6EF0000E81
:10129000276E3E0E286E2968270E166E000E176EFA
:1012A000000E196E030E186E290E22EC6EF0000E61
:1012B000276E3F0E286E000E296E270E166E000E4A
:1012C000176E000E196E030E186E290E22EC6EF0CA
:1012D000000E276E400E286E020E296E270E166E27
:1012E000000E176E000E196E030E186E290E22ECFA
:1012F0006EF0000E276E500E286E000E296E000E46
:101300002A6E270E166E000E176E000E196E040E52
:10131000186E290E22EC6EF0000E276E520E286E0B
:10132000000E296E000E2A6E270E166E000E176E26
:10133000000E196E040E186E290E22EC6EF0000ECF
:10134000276E570E286E380E296E270E166E000E69
:10135000176E000E196E030E186E290E22EC6EF039
:10136000000E276E640E286E010E296E680E2A6E1E
:10137000270E166E000E176E000E196E040E186EF4
:10138000290E22EC6EF0000E276E660E286E000EFF
:10139000296EC00E2A6E270E166E000E176E000EF6
:1013A000196E040E186E290E22EC6EF0000E276ED8
:1013B000710E286E010E296E270E166E000E176E26
:1013C000000E196E030E186E290E22EC6EF0000E40
:1013D000276E7C0E286E010E296E270E166E000EEB
:1013E000176E000E196E030E186E290E22EC6EF0A9
:1013F000000E276E7E0E286E020E296E270E166EC8
:10140000000E176E000E196E030E186E290E22ECD8
:101410006EF0000E276E820E286E000E296E270ECB
:10142000166E000E176E000E196E030E186E290E42
:1014300022EC6EF0000E276E770E286E010E296EDC
:10144000270E166E000E176E000E196E030E186E24
:10145000290E22EC6EF0000E276E810E286E8B0E88
:10146000296E270E166E000E176E000E196E030EF3
:10147000186E290E22EC6EF0000E276E540E286EA8
:10148000C80E296E000E2A6E270E166E000E176EFD
:10149000000E196E040E186E290E22EC6EF0000E6E
:1014A000276E4F0E286E020E296E270E166E000E46
:1014B000176E000E196E030E186E290E22EC6EF0D8
:1014C000000E276E600E286E270E166E000E176E29
:1014D000000E196E020E186E290E22EC6EF0270E09
:1014E000166E000E176E000E196E010E186E290E84
:1014F000C7EC6EF0000E276E5E0E286E270E166E7D
:10150000000E176E000E196E020E186E290E22ECD8
:101510006EF0270E166E000E176E000E196E020E7C
:10152000186E290EC7EC6EF0000E276E600E286E46
:101530000F0E296E270E166E000E176E000E196E16
:10154000030E186E290E22EC6EF0000E276E630E4D
:10155000286E0D0E296E270E166E000E176E000EE9
:10156000196E030E186E290E22EC6EF0000E276E17
:10157000690E286EB80E296E270E166E000E176EB5
:10158000000E196E030E186E290E22EC6EF0000E7E
:10159000276E780E286E0F0E296E270E166E000E1F
:1015A000176E000E196E030E186E290E22EC6EF0E7
:1015B000000E276E790E286E0D0E296E270E166E00
:1015C000000E176E000E196E030E186E290E22EC17
:1015D0006EF0000E276E7A0E286E0E0E296E270E04
:1015E000166E000E176E000E196E030E186E290E81
:1015F00022EC6EF0000E276E7B0E286E0E0E296E0A
:10160000270E166E000E176E000E196E030E186E62
:10161000290E22EC6EF0000E276E600E286E270E4B
:10162000166E000E176E000E196E020E186E290E41
:1016300022EC6EF0270E166E000E176E000E196E5D
:10164000010E186E290EC7EC6EF0000E276E4B0EC1
:10165000286E0A0E296E270E166E000E176E000EEB
:10166000196E030E186E290E22EC6EF0000E276E16
:101670005A0E286E000E296E000E2A6E270E166E68
:10168000000E176E000E196E040E186E290E22EC55
:101690006EF0000E276E5E0E286E010E296EC70ECC
:1016A0002A6E270E166E000E176E000E196E040EAF
:1016B000186E290E22EC6EF0000E276E630E286E57
:1016C000270E166E000E176E000E196E020E186EA3
:1016D000290E22EC6EF0270E166E000E176E000E0D
:1016E000196E010E186E290EC7EC6EF0000E276EF3
:1016F0005C0E286E000E296E000E2A6E270E166EE6
:10170000000E176E000E196E040E186E290E22ECD4
:101710006EF0000E276E610E286E010E296EE40E2B
:101720002A6E270E166E000E176E000E196E040E2E
:10173000186E290E22EC6EF0000E276E600E286ED9
:10174000270E166E000E176E000E196E020E186E22
:10175000290E22EC6EF0270E166E000E176E000E8C
:10176000196E010E186E290EC7EC6EF0000E276E72
:101770004B0E286E0A0E296E270E166E000E176E7F
:10178000000E196E030E186E290E22EC6EF0000E7C
:10179000276E5A0E286E000E296E000E2A6E270E36
:1017A000166E000E176E000E196E040E186E290EBE
:1017B00022EC6EF0000E276E5E0E286E000E296E73
:1017C000E80E2A6E270E166E000E176E000E196EAA
:1017D000040E186E290E22EC6EF0000E276E630EBA
:1017E000286E270E166E000E176E000E196E020E72
:1017F000186E290E22EC6EF0270E166E000E176E74
:10180000000E196E010E186E290EC7EC6EF0000E58
:10181000276E5C0E286E000E296E000E2A6E270EB3
:10182000166E000E176E000E196E040E186E290E3D
:1018300022EC6EF0000E276E610E286E010E296EEE
:10184000840E2A6E270E166E000E176E000E196E8D
:10185000040E186E290E22EC6EF0000E276E220E7A
:10186000286E270E166E000E176E000E196E020EF1
:10187000186E290E22EC6EF0270E166E000E176EF3
:10188000000E196E020E186E290EC7EC6EF0000ED7
:10189000276E1E0E286E000E296E5C0E2A6E270E15
:1018A000166E000E176E000E196E040E186E290EBD
:1018B00022EC6EF0000E276E600E286E270E166E5C
:1018C000000E176E000E196E020E186E290E22EC15
:1018D0006EF0270E166E000E176E000E196E010EBA
:1018E000186E290EC7EC6EF0000E276E5E0E286E85
:1018F000270E166E000E176E000E196E020E186E71
:10190000290E22EC6EF0270E166E000E176E000EDA
:10191000196E020E186E290EC7EC6EF0000E276EBF
:10192000600E286E0F0E296E270E166E000E176EB3
:10193000000E196E030E186E290E22EC6EF0000ECA
:10194000276E630E286E0D0E296E270E166E000E82
:10195000176E000E196E030E186E290E22EC6EF033
:10196000000E276E690E286EB80E296E270E166EB1
:10197000000E176E000E196E030E186E290E22EC63
:101980006EF0000E276E780E286E0F0E296E270E51
:10199000166E000E176E000E196E030E186E290ECD
:1019A00022EC6EF0000E276E790E286E0D0E296E59
:1019B000270E166E000E176E000E196E030E186EAF
:1019C000290E22EC6EF0000E276E7A0E286E0E0E97
:1019D000296E270E166E000E176E000E196E030E7E
:1019E000186E290E22EC6EF0000E276E7B0E286E0C
:1019F0000E0E296E270E166E000E176E000E196E53
:101A0000030E186E290E22EC6EF0000E276E600E8B
:101A1000286E270E166E000E176E000E196E020E3F
:101A2000186E290E22EC6EF0270E166E000E176E41
:101A3000000E196E010E186E290EC7EC6EF0000E26
:101A4000276E4B0E286E0A0E296E270E166E000E9C
:101A5000176E000E196E030E186E290E22EC6EF032
:101A6000000E276E5A0E286E000E296E000E2A6E8A
:101A7000270E166E000E176E000E196E040E186EED
:101A8000290E22EC6EF0000E276E5E0E286E000E00
:101A9000296EE80E2A6E270E166E000E176E000EC7
:101AA000196E040E186E290E22EC6EF0000E276ED1
:101AB000630E286E270E166E000E176E000E196E3E
:101AC000020E186E290E22EC6EF0270E166E000E16
:101AD000176E000E196E010E186E290EC7EC6EF00F
:101AE000000E276E5C0E286E000E296E000E2A6E08
:101AF000270E166E000E176E000E196E040E186E6D
:101B0000290E22EC6EF0000E276E610E286E010E7B
:101B1000296E840E2A6E270E166E000E176E000EAA
:101B2000196E040E186E290E22EC6EF0000E276E50
:101B3000600E286E270E166E000E176E000E196EC0
:101B4000020E186E290E22EC6EF0270E166E000E95
:101B5000176E000E196E010E186E290EC7EC6EF08E
:101B6000000E276E4B0E286E0A0E296E270E166E7B
:101B7000000E176E000E196E030E186E290E22EC61
:101B80006EF0000E276E5A0E286E000E296E000EA3
:101B90002A6E270E166E000E176E000E196E040EBA
:101BA000186E290E22EC6EF0000E276E5E0E286E67
:101BB000000E296EE80E2A6E270E166E000E176EA6
:101BC000000E196E040E186E290E22EC6EF0000E37
:101BD000276E630E286E270E166E000E176E000E0F
:101BE000196E020E186E290E22EC6EF0270E166E7C
:101BF000000E176E000E196E010E186E290EC7EC3E
:101C00006EF0000E276E5C0E286E000E296E000E20
:101C10002A6E270E166E000E176E000E196E040E39
:101C2000186E290E22EC6EF0000E276E610E286EE3
:101C3000010E296E840E2A6E270E166E000E176E88
:101C4000000E196E040E186E290E22EC6EF0000EB6
:101C5000276E6C0E286E000E296E000E2A6E070E7F
:101C60002B6E3A0E2C6E270E166E000E176E000E9F
:101C7000196E060E186E290E22EC6EF0000E276EFD
:101C8000860E286E010E296E270E166E000E176E38
:101C9000000E196E030E186E290E22EC6EF0000E67
:101CA000276E870E286E400E296E270E166E000EC8
:101CB000176E000E196E030E186E290E22EC6EF0D0
:101CC000000E276E310E286E270E166E000E176E50
:101CD000000E196E020E186E290E22EC6EF0270E01
:101CE000166E000E176E000E196E010E186E290E7C
:101CF000C7EC6EF0000E276E310E286E270E166EA2
:101D0000000E176E000E196E020E186E290E22ECD0
:101D10006EF0270E166E000E176E000E196E010E75
:101D2000186E290EC7EC6EF0000E276E310E286E6D
:101D3000270E166E000E176E000E196E020E186E2C
:101D4000290E22EC6EF0270E166E000E176E000E96
:101D5000196E010E186E290EC7EC6EF0000E276E7C
:101D6000310E286E270E166E000E176E000E196EBD
:101D7000020E186E290E22EC6EF0270E166E000E63
:101D8000176E000E196E010E186E290EC7EC6EF05C
:101D9000000E276E310E286E270E166E000E176E7F
:101DA000000E196E020E186E290E22EC6EF0270E30
:101DB000166E000E176E000E196E010E186E290EAB
:101DC000C7EC6EF0000E276E310E286E270E166ED1
:101DD000000E176E000E196E020E186E290E22EC00
:101DE0006EF0270E166E000E176E000E196E010EA5
:101DF000186E290EC7EC6EF0000E276E310E286E9D
:101E0000270E166E000E176E000E196E020E186E5B
:101E1000290E22EC6EF0270E166E000E176E000EC5
:101E2000196E010E186E290EC7EC6EF0000E276EAB
:101E3000310E286E270E166E000E176E000E196EEC
:101E4000020E186E290E22EC6EF0270E166E000E92
:101E5000176E000E196E010E186E290EC7EC6EF08B
:101E6000000E276E310E286E270E166E000E176EAE
:101E7000000E196E020E186E290E22EC6EF0270E5F
:101E8000166E000E176E000E196E010E186E290EDA
:101E9000C7EC6EF0000E276E310E286E270E166E00
:101EA000000E176E000E196E020E186E290E22EC2F
:101EB0006EF0270E166E000E176E000E196E010ED4
:101EC000186E290EC7EC6EF0000E276E310E286ECC
:101ED000270E166E000E176E000E196E020E186E8B
:101EE000290E22EC6EF0270E166E000E176E000EF5
:101EF000196E010E186E290EC7EC6EF0000E276EDB
:101F0000310E286E270E166E000E176E000E196E1B
:101F1000020E186E290E22EC6EF0270E166E000EC1
:101F2000176E000E196E010E186E290EC7EC6EF0BA
:101F3000000E276E310E286E270E166E000E176EDD
:101F4000000E196E020E186E290E22EC6EF0270E8E
:101F5000166E000E176E000E196E010E186E290E09
:101F6000C7EC6EF0000E276E310E286E270E166E2F
:101F7000000E176E000E196E020E186E290E22EC5E
:101F80006EF0270E166E000E176E000E196E010E03
:101F9000186E290EC7EC6EF0000E276E310E286EFB
:101FA000270E166E000E176E000E196E020E186EBA
:101FB000290E22EC6EF0270E166E000E176E000E24
:101FC000196E010E186E290EC7EC6EF0000E276E0A
:101FD000310E286E270E166E000E176E000E196E4B
:101FE000020E186E290E22EC6EF0270E166E000EF1
:101FF000176E000E196E010E186E290EC7EC6EF0EA
:10200000000E276E310E286E270E166E000E176E0C
:10201000000E196E020E186E290E22EC6EF0270EBD
:10202000166E000E176E000E196E010E186E290E38
:10203000C7EC6EF0000E276E310E286E270E166E5E
:10204000000E176E000E196E020E186E290E22EC8D
:102050006EF0270E166E000E176E000E196E010E32
:10206000186E290EC7EC6EF0000E276E310E286E2A
:10207000270E166E000E176E000E196E020E186EE9
:10208000290E22EC6EF0270E166E000E176E000E53
:10209000196E010E186E290EC7EC6EF0000E276E39
:1020A000310E286E270E166E000E176E000E196E7A
:1020B000020E186E290E22EC6EF0270E166E000E20
:1020C000176E000E196E010E186E290EC7EC6EF019
:1020D000000E276E310E286E270E166E000E176E3C
:1020E000000E196E020E186E290E22EC6EF0270EED
:1020F000166E000E176E000E196E010E186E290E68
:10210000C7EC6EF0000E276E310E286E270E166E8D
:10211000000E176E000E196E020E186E290E22ECBC
:102120006EF0270E166E000E176E000E196E010E61
:10213000186E290EC7EC6EF0000E276E310E286E59
:10214000270E166E000E176E000E196E020E186E18
:10215000290E22EC6EF0270E166E000E176E000E82
:10216000196E010E186E290EC7EC6EF0000E276E68
:10217000310E286E270E166E000E176E000E196EA9
:10218000020E186E290E22EC6EF0270E166E000E4F
:10219000176E000E196E010E186E290EC7EC6EF048
:1021A000000E276E310E286E270E166E000E176E6B
:1021B000000E196E020E186E290E22EC6EF0270E1C
:1021C000166E000E176E000E196E010E186E290E97
:1021D000C7EC6EF0000E276E310E286E270E166EBD
:1021E000000E176E000E196E020E186E290E22ECEC
:1021F0006EF0270E166E000E176E000E196E010E91
:10220000186E290EC7EC6EF0000E276E310E286E88
:10221000270E166E000E176E000E196E020E186E47
:10222000290E22EC6EF0270E166E000E176E000EB1
:10223000196E010E186E290EC7EC6EF0000E276E97
:10224000310E286E270E166E000E176E000E196ED8
:10225000020E186E290E22EC6EF0270E166E000E7E
:10226000176E000E196E010E186E290EC7EC6EF077
:10227000000E276E310E286E270E166E000E176E9A
:10228000000E196E020E186E290E22EC6EF0270E4B
:10229000166E000E176E000E196E010E186E290EC6
:1022A000C7EC6EF0000E276E310E286E270E166EEC
:1022B000000E176E000E196E020E186E290E22EC1B
:1022C0006EF0270E166E000E176E000E196E010EC0
:1022D000186E290EC7EC6EF0000E276E310E286EB8
:1022E000270E166E000E176E000E196E020E186E77
:1022F000290E22EC6EF0270E166E000E176E000EE1
:10230000196E010E186E290EC7EC6EF0000E276EC6
:10231000310E286E270E166E000E176E000E196E07
:10232000020E186E290E22EC6EF0270E166E000EAD
:10233000176E000E196E010E186E290EC7EC6EF0A6
:10234000000E276E310E286E270E166E000E176EC9
:10235000000E196E020E186E290E22EC6EF0270E7A
:10236000166E000E176E000E196E010E186E290EF5
:10237000C7EC6EF0000E276E310E286E270E166E1B
:10238000000E176E000E196E020E186E290E22EC4A
:102390006EF0270E166E000E176E000E196E010EEF
:1023A000186E290EC7EC6EF0000E276E310E286EE7
:1023B000270E166E000E176E000E196E020E186EA6
:1023C000290E22EC6EF0270E166E000E176E000E10
:1023D000196E010E186E290EC7EC6EF0000E276EF6
:1023E000310E286E270E166E000E176E000E196E37
:1023F000020E186E290E22EC6EF0270E166E000EDD
:10240000176E000E196E010E186E290EC7EC6EF0D5
:10241000000E276E310E286E270E166E000E176EF8
:10242000000E196E020E186E290E22EC6EF0270EA9
:10243000166E000E176E000E196E010E186E290E24
:10244000C7EC6EF0000E276E310E286E270E166E4A
:10245000000E176E000E196E020E186E290E22EC79
:102460006EF0270E166E000E176E000E196E010E1E
:10247000186E290EC7EC6EF0000E276E310E286E16
:10248000270E166E000E176E000E196E020E186ED5
:10249000290E22EC6EF0270E166E000E176E000E3F
:1024A000196E010E186E290EC7EC6EF0000E276E25
:1024B000310E286E270E166E000E176E000E196E66
:1024C000020E186E290E22EC6EF0270E166E000E0C
:1024D000176E000E196E010E186E290EC7EC6EF005
:1024E000000E276E310E286E270E166E000E176E28
:1024F000000E196E020E186E290E22EC6EF0270ED9
:10250000166E000E176E000E196E010E186E290E53
:10251000C7EC6EF0000E276E310E286E270E166E79
:10252000000E176E000E196E020E186E290E22ECA8
:102530006EF0270E166E000E176E000E196E010E4D
:10254000186E290EC7EC6EF0000E276E310E286E45
:10255000270E166E000E176E000E196E020E186E04
:10256000290E22EC6EF0270E166E000E176E000E6E
:10257000196E010E186E290EC7EC6EF0000E276E54
:10258000310E286E270E166E000E176E000E196E95
:10259000020E186E290E22EC6EF0270E166E000E3B
:1025A000176E000E196E010E186E290EC7EC6EF034
:1025B000000E276E310E286E270E166E000E176E57
:1025C000000E196E020E186E290E22EC6EF0270E08
:1025D000166E000E176E000E196E010E186E290E83
:1025E000C7EC6EF0000E276E310E286E270E166EA9
:1025F000000E176E000E196E020E186E290E22ECD8
:102600006EF0270E166E000E176E000E196E010E7C
:10261000186E290EC7EC6EF0000E276E310E286E74
:10262000270E166E000E176E000E196E020E186E33
:10263000290E22EC6EF0270E166E000E176E000E9D
:10264000196E010E186E290EC7EC6EF0000E276E83
:10265000310E286E270E166E000E176E000E196EC4
:10266000020E186E290E22EC6EF0270E166E000E6A
:10267000176E000E196E010E186E290EC7EC6EF063
:10268000000E276E310E286E270E166E000E176E86
:10269000000E196E020E186E290E22EC6EF0270E37
:1026A000166E000E176E000E196E010E186E290EB2
:1026B000C7EC6EF0000E276E310E286E270E166ED8
:1026C000000E176E000E196E020E186E290E22EC07
:1026D0006EF0270E166E000E176E000E196E010EAC
:1026E000186E290EC7EC6EF0000E276E310E286EA4
:1026F000270E166E000E176E000E196E020E186E63
:10270000290E22EC6EF0270E166E000E176E000ECC
:10271000196E010E186E290EC7EC6EF0000E276EB2
:10272000310E286E270E166E000E176E000E196EF3
:10273000020E186E290E22EC6EF0270E166E000E99
:10274000176E000E196E010E186E290EC7EC6EF092
:10275000000E276E310E286E270E166E000E176EB5
:10276000000E196E020E186E290E22EC6EF0270E66
:10277000166E000E176E000E196E010E186E290EE1
:10278000C7EC6EF0000E276E310E286E270E166E07
:10279000000E176E000E196E020E186E290E22EC36
:1027A0006EF0270E166E000E176E000E196E010EDB
:1027B000186E290EC7EC6EF0000E276E310E286ED3
:1027C000270E166E000E176E000E196E020E186E92
:1027D000290E22EC6EF0270E166E000E176E000EFC
:1027E000196E010E186E290EC7EC6EF0000E276EE2
:1027F000310E286E270E166E000E176E000E196E23
:10280000020E186E290E22EC6EF0270E166E000EC8
:10281000176E000E196E010E186E290EC7EC6EF0C1
:10282000000E276E310E286E270E166E000E176EE4
:10283000000E196E020E186E290E22EC6EF0270E95
:10284000166E000E176E000E196E010E186E290E10
:10285000C7EC6EF0000E276E310E286E270E166E36
:10286000000E176E000E196E020E186E290E22EC65
:102870006EF0270E166E000E176E000E196E010E0A
:10288000186E290EC7EC6EF0000E276E310E286E02
:10289000270E166E000E176E000E196E020E186EC1
:1028A000290E22EC6EF0270E166E000E176E000E2B
:1028B000196E010E186E290EC7EC6EF0000E276E11
:1028C000310E286E270E166E000E176E000E196E52
:1028D000020E186E290E22EC6EF0270E166E000EF8
:1028E000176E000E196E010E186E290EC7EC6EF0F1
:1028F000000E276E310E286E270E166E000E176E14
:10290000000E196E020E186E290E22EC6EF0270EC4
:10291000166E000E176E000E196E010E186E290E3F
:10292000C7EC6EF0000E276E310E286E270E166E65
:10293000000E176E000E196E020E186E290E22EC94
:102940006EF0270E166E000E176E000E196E010E39
:10295000186E290EC7EC6EF0000E276E310E286E31
:10296000270E166E000E176E000E196E020E186EF0
:10297000290E22EC6EF0270E166E000E176E000E5A
:10298000196E010E186E290EC7EC6EF0000E276E40
:10299000310E286E270E166E000E176E000E196E81
:1029A000020E186E290E22EC6EF0270E166E000E27
:1029B000176E000E196E010E186E290EC7EC6EF020
:1029C000000E276E310E286E270E166E000E176E43
:1029D000000E196E020E186E290E22EC6EF0270EF4
:1029E000166E000E176E000E196E010E186E290E6F
:1029F000C7EC6EF0000E276E310E286E270E166E95
:102A0000000E176E000E196E020E186E290E22ECC3
:102A10006EF0270E166E000E176E000E196E010E68
:102A2000186E290EC7EC6EF0000E276E310E286E60
:102A3000270E166E000E176E000E196E020E186E1F
:102A4000290E22EC6EF0270E166E000E176E000E89
:102A5000196E010E186E290EC7EC6EF0000E276E6F
:102A6000310E286E270E166E000E176E000E196EB0
:102A7000020E186E290E22EC6EF0270E166E000E56
:102A8000176E000E196E010E186E290EC7EC6EF04F
:102A9000000E276E310E286E270E166E000E176E72
:102AA000000E196E020E186E290E22EC6EF0270E23
:102AB000166E000E176E000E196E010E186E290E9E
:102AC000C7EC6EF0000E276E310E286E270E166EC4
:102AD000000E176E000E196E020E186E290E22ECF3
:102AE0006EF0270E166E000E176E000E196E010E98
:102AF000186E290EC7EC6EF0000E276E310E286E90
:102B0000270E166E000E176E000E196E020E186E4E
:102B1000290E22EC6EF0270E166E000E176E000EB8
:102B2000196E010E186E290EC7EC6EF0000E276E9E
:102B3000310E286E270E166E000E176E000E196EDF
:102B4000020E186E290E22EC6EF0270E166E000E85
:102B5000176E000E196E010E186E290EC7EC6EF07E
:102B6000000E276E310E286E270E166E000E176EA1
:102B7000000E196E020E186E290E22EC6EF0270E52
:102B8000166E000E176E000E196E010E186E290ECD
:102B9000C7EC6EF0000E276E310E286E270E166EF3
:102BA000000E176E000E196E020E186E290E22EC22
:102BB0006EF0270E166E000E176E000E196E010EC7
:102BC000186E290EC7EC6EF0000E276E310E286EBF
:102BD000270E166E000E176E000E196E020E186E7E
:102BE000290E22EC6EF0270E166E000E176E000EE8
:102BF000196E010E186E290EC7EC6EF0000E276ECE
:102C0000310E286E270E166E000E176E000E196E0E
:102C1000020E186E290E22EC6EF0270E166E000EB4
:102C2000176E000E196E010E186E290EC7EC6EF0AD
:102C3000000E276E310E286E270E166E000E176ED0
:102C4000000E196E020E186E290E22EC6EF0270E81
:102C5000166E000E176E000E196E010E186E290EFC
:102C6000C7EC6EF0000E276E310E286E270E166E22
:102C7000000E176E000E196E020E186E290E22EC51
:102C80006EF0270E166E000E176E000E196E010EF6
:102C9000186E290EC7EC6EF0000E276E310E286EEE
:102CA000270E166E000E176E000E196E020E186EAD
:102CB000290E22EC6EF0270E166E000E176E000E17
:102CC000196E010E186E290EC7EC6EF0000E276EFD
:102CD000310E286E270E166E000E176E000E196E3E
:102CE000020E186E290E22EC6EF0270E166E000EE4
:102CF000176E000E196E010E186E290EC7EC6EF0DD
:102D0000000E276E310E286E270E166E000E176EFF
:102D1000000E196E020E186E290E22EC6EF0270EB0
:102D2000166E000E176E000E196E010E186E290E2B
:102D3000C7EC6EF0000E276E310E286E270E166E51
:102D4000000E176E000E196E020E186E290E22EC80
:102D50006EF0270E166E000E176E000E196E010E25
:102D6000186E290EC7EC6EF0000E276E310E286E1D
:102D7000270E166E000E176E000E196E020E186EDC
:102D8000290E22EC6EF0270E166E000E176E000E46
:102D9000196E010E186E290EC7EC6EF0000E276E2C
:102DA000310E286E270E166E000E176E000E196E6D
:102DB000020E186E290E22EC6EF0270E166E000E13
:102DC000176E000E196E010E186E290EC7EC6EF00C
:102DD000000E276E310E286E270E166E000E176E2F
:102DE000000E196E020E186E290E22EC6EF0270EE0
:102DF000166E000E176E000E196E010E186E290E5B
:102E0000C7EC6EF0000E276E310E286E270E166E80
:102E1000000E176E000E196E020E186E290E22ECAF
:102E20006EF0270E166E000E176E000E196E010E54
:102E3000186E290EC7EC6EF0000E276E310E286E4C
:102E4000270E166E000E176E000E196E020E186E0B
:102E5000290E22EC6EF0270E166E000E176E000E75
:102E6000196E010E186E290EC7EC6EF0000E276E5B
:102E7000310E286E270E166E000E176E000E196E9C
:102E8000020E186E290E22EC6EF0270E166E000E42
:102E9000176E000E196E010E186E290EC7EC6EF03B
:102EA000000E276E310E286E270E166E000E176E5E
:102EB000000E196E020E186E290E22EC6EF0270E0F
:102EC000166E000E176E000E196E010E186E290E8A
:102ED000C7EC6EF0000E276E310E286E270E166EB0
:102EE000000E176E000E196E020E186E290E22ECDF
:102EF0006EF0270E166E000E176E000E196E010E84
:102F0000186E290EC7EC6EF0000E276E310E286E7B
:102F1000270E166E000E176E000E196E020E186E3A
:102F2000290E22EC6EF0270E166E000E176E000EA4
:102F3000196E010E186E290EC7EC6EF0000E276E8A
:102F4000310E286E270E166E000E176E000E196ECB
:102F5000020E186E290E22EC6EF0270E166E000E71
:102F6000176E000E196E010E186E290EC7EC6EF06A
:102F7000000E276E310E286E270E166E000E176E8D
:102F8000000E196E020E186E290E22EC6EF0270E3E
:102F9000166E000E176E000E196E010E186E290EB9
:102FA000C7EC6EF0000E276E310E286E270E166EDF
:102FB000000E176E000E196E020E186E290E22EC0E
:102FC0006EF0270E166E000E176E000E196E010EB3
:102FD000186E290EC7EC6EF0000E276E310E286EAB
:102FE000270E166E000E176E000E196E020E186E6A
:102FF000290E22EC6EF0270E166E000E176E000ED4
:10300000196E010E186E290EC7EC6EF0000E276EB9
:10301000310E286E270E166E000E176E000E196EFA
:10302000020E186E290E22EC6EF0270E166E000EA0
:10303000176E000E196E010E186E290EC7EC6EF099
:10304000000E276E310E286E270E166E000E176EBC
:10305000000E196E020E186E290E22EC6EF0270E6D
:10306000166E000E176E000E196E010E186E290EE8
:10307000C7EC6EF0000E276E310E286E270E166E0E
:10308000000E176E000E196E020E186E290E22EC3D
:103090006EF0270E166E000E176E000E196E010EE2
:1030A000186E290EC7EC6EF0000E276E310E286EDA
:1030B000270E166E000E176E000E196E020E186E99
:1030C000290E22EC6EF0270E166E000E176E000E03
:1030D000196E010E186E290EC7EC6EF0000E276EE9
:1030E000310E286E270E166E000E176E000E196E2A
:1030F000020E186E290E22EC6EF0270E166E000ED0
:10310000176E000E196E010E186E290EC7EC6EF0C8
:10311000000E276E310E286E270E166E000E176EEB
:10312000000E196E020E186E290E22EC6EF0270E9C
:10313000166E000E176E000E196E010E186E290E17
:10314000C7EC6EF0000E276E310E286E270E166E3D
:10315000000E176E000E196E020E186E290E22EC6C
:103160006EF0270E166E000E176E000E196E010E11
:10317000186E290EC7EC6EF0000E276E310E286E09
:10318000270E166E000E176E000E196E020E186EC8
:10319000290E22EC6EF0270E166E000E176E000E32
:1031A000196E010E186E290EC7EC6EF0000E276E18
:1031B000310E286E270E166E000E176E000E196E59
:1031C000020E186E290E22EC6EF0270E166E000EFF
:1031D000176E000E196E010E186E290EC7EC6EF0F8
:1031E000000E276E310E286E270E166E000E176E1B
:1031F000000E196E020E186E290E22EC6EF0270ECC
:10320000166E000E176E000E196E010E186E290E46
:10321000C7EC6EF0000E276E310E286E270E166E6C
:10322000000E176E000E196E020E186E290E22EC9B
:103230006EF0270E166E000E176E000E196E010E40
:10324000186E290EC7EC6EF0000E276E310E286E38
:10325000270E166E000E176E000E196E020E186EF7
:10326000290E22EC6EF0270E166E000E176E000E61
:10327000196E010E186E290EC7EC6EF0000E276E47
:10328000310E286E270E166E000E176E000E196E88
:10329000020E186E290E22EC6EF0270E166E000E2E
:1032A000176E000E196E010E186E290EC7EC6EF027
:1032B000000E276E310E286E270E166E000E176E4A
:1032C000000E196E020E186E290E22EC6EF0270EFB
:1032D000166E000E176E000E196E010E186E290E76
:1032E000C7EC6EF0000E276E310E286E270E166E9C
:1032F000000E176E000E196E020E186E290E22ECCB
:103300006EF0270E166E000E176E000E196E010E6F
:10331000186E290EC7EC6EF0000E276E310E286E67
:10332000270E166E000E176E000E196E020E186E26
:10333000290E22EC6EF0270E166E000E176E000E90
:10334000196E010E186E290EC7EC6EF0000E276E76
:10335000310E286E270E166E000E176E000E196EB7
:10336000020E186E290E22EC6EF0270E166E000E5D
:10337000176E000E196E010E186E290EC7EC6EF056
:10338000000E276E310E286E270E166E000E176E79
:10339000000E196E020E186E290E22EC6EF0270E2A
:1033A000166E000E176E000E196E010E186E290EA5
:1033B000C7EC6EF0000E276E310E286E270E166ECB
:1033C000000E176E000E196E020E186E290E22ECFA
:1033D0006EF0270E166E000E176E000E196E010E9F
:1033E000186E290EC7EC6EF0000E276E310E286E97
:1033F000270E166E000E176E000E196E020E186E56
:10340000290E22EC6EF0270E166E000E176E000EBF
:10341000196E010E186E290EC7EC6EF0000E276EA5
:10342000310E286E270E166E000E176E000E196EE6
:10343000020E186E290E22EC6EF0270E166E000E8C
:10344000176E000E196E010E186E290EC7EC6EF085
:10345000000E276E310E286E270E166E000E176EA8
:10346000000E196E020E186E290E22EC6EF0270E59
:10347000166E000E176E000E196E010E186E290ED4
:10348000C7EC6EF0000E276E310E286E270E166EFA
:10349000000E176E000E196E020E186E290E22EC29
:1034A0006EF0270E166E000E176E000E196E010ECE
:1034B000186E290EC7EC6EF0000E276E310E286EC6
:1034C000270E166E000E176E000E196E020E186E85
:1034D000290E22EC6EF0270E166E000E176E000EEF
:1034E000196E010E186E290EC7EC6EF0000E276ED5
:1034F000310E286E270E166E000E176E000E196E16
:10350000020E186E290E22EC6EF0270E166E000EBB
:10351000176E000E196E010E186E290EC7EC6EF0B4
:10352000000E276E310E286E270E166E000E176ED7
:10353000000E196E020E186E290E22EC6EF0270E88
:10354000166E000E176E000E196E010E186E290E03
:10355000C7EC6EF0000E276E310E286E270E166E29
:10356000000E176E000E196E020E186E290E22EC58
:103570006EF0270E166E000E176E000E196E010EFD
:10358000186E290EC7EC6EF0000E276E310E286EF5
:10359000270E166E000E176E000E196E020E186EB4
:1035A000290E22EC6EF0270E166E000E176E000E1E
:1035B000196E010E186E290EC7EC6EF0000E276E04
:1035C000310E286E270E166E000E176E000E196E45
:1035D000020E186E290E22EC6EF0270E166E000EEB
:1035E000176E000E196E010E186E290EC7EC6EF0E4
:1035F000000E276E310E286E270E166E000E176E07
:10360000000E196E020E186E290E22EC6EF0270EB7
:10361000166E000E176E000E196E010E186E290E32
:10362000C7EC6EF0000E276E310E286E270E166E58
:10363000000E176E000E196E020E186E290E22EC87
:103640006EF0270E166E000E176E000E196E010E2C
:10365000186E290EC7EC6EF0000E276E310E286E24
:10366000270E166E000E176E000E196E020E186EE3
:10367000290E22EC6EF0270E166E000E176E000E4D
:10368000196E010E186E290EC7EC6EF0000E276E33
:10369000310E286E270E166E000E176E000E196E74
:1036A000020E186E290E22EC6EF0270E166E000E1A
:1036B000176E000E196E010E186E290EC7EC6EF013
:1036C000000E276E310E286E270E166E000E176E36
:1036D000000E196E020E186E290E22EC6EF0270EE7
:1036E000166E000E176E000E196E010E186E290E62
:1036F000C7EC6EF0000E276E310E286E270E166E88
:10370000000E176E000E196E020E186E290E22ECB6
:103710006EF0270E166E000E176E000E196E010E5B
:10372000186E290EC7EC6EF0000E276E310E286E53
:10373000270E166E000E176E000E196E020E186E12
:10374000290E22EC6EF0270E166E000E176E000E7C
:10375000196E010E186E290EC7EC6EF0000E276E62
:10376000310E286E270E166E000E176E000E196EA3
:10377000020E186E290E22EC6EF0270E166E000E49
:10378000176E000E196E010E186E290EC7EC6EF042
:10379000000E276E310E286E270E166E000E176E65
:1037A000000E196E020E186E290E22EC6EF0270E16
:1037B000166E000E176E000E196E010E186E290E91
:1037C000C7EC6EF0000E276E310E286E270E166EB7
:1037D000000E176E000E196E020E186E290E22ECE6
:1037E0006EF0270E166E000E176E000E196E010E8B
:1037F000186E290EC7EC6EF0000E276E310E286E83
:10380000270E166E000E176E000E196E020E186E41
:10381000290E22EC6EF0270E166E000E176E000EAB
:10382000196E010E186E290EC7EC6EF0000E276E91
:10383000310E286E270E166E000E176E000E196ED2
:10384000020E186E290E22EC6EF0270E166E000E78
:10385000176E000E196E010E186E290EC7EC6EF071
:10386000000E276E310E286E270E166E000E176E94
:10387000000E196E020E186E290E22EC6EF0270E45
:10388000166E000E176E000E196E010E186E290EC0
:10389000C7EC6EF0000E276E310E286E270E166EE6
:1038A000000E176E000E196E020E186E290E22EC15
:1038B0006EF0270E166E000E176E000E196E010EBA
:1038C000186E290EC7EC6EF0000E276E310E286EB2
:1038D000270E166E000E176E000E196E020E186E71
:1038E000290E22EC6EF0270E166E000E176E000EDB
:1038F000196E010E186E290EC7EC6EF0000E276EC1
:10390000310E286E270E166E000E176E000E196E01
:10391000020E186E290E22EC6EF0270E166E000EA7
:10392000176E000E196E010E186E290EC7EC6EF0A0
:10393000000E276E310E286E270E166E000E176EC3
:10394000000E196E020E186E290E22EC6EF0270E74
:10395000166E000E176E000E196E010E186E290EEF
:10396000C7EC6EF0000E276E310E286E270E166E15
:10397000000E176E000E196E020E186E290E22EC44
:103980006EF0270E166E000E176E000E196E010EE9
:10399000186E290EC7EC6EF0000E276E310E286EE1
:1039A000270E166E000E176E000E196E020E186EA0
:1039B000290E22EC6EF0270E166E000E176E000E0A
:1039C000196E010E186E290EC7EC6EF0000E276EF0
:1039D000310E286E270E166E000E176E000E196E31
:1039E000020E186E290E22EC6EF0270E166E000ED7
:1039F000176E000E196E010E186E290EC7EC6EF0D0
:103A0000000E276E310E286E270E166E000E176EF2
:103A1000000E196E020E186E290E22EC6EF0270EA3
:103A2000166E000E176E000E196E010E186E290E1E
:103A3000C7EC6EF0000E276E310E286E270E166E44
:103A4000000E176E000E196E020E186E290E22EC73
:103A50006EF0270E166E000E176E000E196E010E18
:103A6000186E290EC7EC6EF0000E276E310E286E10
:103A7000270E166E000E176E000E196E020E186ECF
:103A8000290E22EC6EF0270E166E000E176E000E39
:103A9000196E010E186E290EC7EC6EF0000E276E1F
:103AA000310E286E270E166E000E176E000E196E60
:103AB000020E186E290E22EC6EF0270E166E000E06
:103AC000176E000E196E010E186E290EC7EC6EF0FF
:103AD000000E276E310E286E270E166E000E176E22
:103AE000000E196E020E186E290E22EC6EF0270ED3
:103AF000166E000E176E000E196E010E186E290E4E
:103B0000C7EC6EF0000E276E310E286E270E166E73
:103B1000000E176E000E196E020E186E290E22ECA2
:103B20006EF0270E166E000E176E000E196E010E47
:103B3000186E290EC7EC6EF0000E276E310E286E3F
:103B4000270E166E000E176E000E196E020E186EFE
:103B5000290E22EC6EF0270E166E000E176E000E68
:103B6000196E010E186E290EC7EC6EF0000E276E4E
:103B7000310E286E270E166E000E176E000E196E8F
:103B8000020E186E290E22EC6EF0270E166E000E35
:103B9000176E000E196E010E186E290EC7EC6EF02E
:103BA000000E276E310E286E270E166E000E176E51
:103BB000000E196E020E186E290E22EC6EF0270E02
:103BC000166E000E176E000E196E010E186E290E7D
:103BD000C7EC6EF0000E276E310E286E270E166EA3
:103BE000000E176E000E196E020E186E290E22ECD2
:103BF0006EF0270E166E000E176E000E196E010E77
:103C0000186E290EC7EC6EF0000E276E310E286E6E
:103C1000270E166E000E176E000E196E020E186E2D
:103C2000290E22EC6EF0270E166E000E176E000E97
:103C3000196E010E186E290EC7EC6EF0000E276E7D
:103C4000310E286E270E166E000E176E000E196EBE
:103C5000020E186E290E22EC6EF0270E166E000E64
:103C6000176E000E196E010E186E290EC7EC6EF05D
:103C7000000E276E310E286E270E166E000E176E80
:103C8000000E196E020E186E290E22EC6EF0270E31
:103C9000166E000E176E000E196E010E186E290EAC
:103CA000C7EC6EF0000E276E310E286E270E166ED2
:103CB000000E176E000E196E020E186E290E22EC01
:103CC0006EF0270E166E000E176E000E196E010EA6
:103CD000186E290EC7EC6EF0000E276E310E286E9E
:103CE000270E166E000E176E000E196E020E186E5D
:103CF000290E22EC6EF0270E166E000E176E000EC7
:103D0000196E010E186E290EC7EC6EF0000E276EAC
:103D1000310E286E270E166E000E176E000E196EED
:103D2000020E186E290E22EC6EF0270E166E000E93
:103D3000176E000E196E010E186E290EC7EC6EF08C
:103D4000000E276E310E286E270E166E000E176EAF
:103D5000000E196E020E186E290E22EC6EF0270E60
:103D6000166E000E176E000E196E010E186E290EDB
:103D7000C7EC6EF0000E276E310E286E270E166E01
:103D8000000E176E000E196E020E186E290E22EC30
:103D90006EF0270E166E000E176E000E196E010ED5
:103DA000186E290EC7EC6EF0000E276E310E286ECD
:103DB000270E166E000E176E000E196E020E186E8C
:103DC000290E22EC6EF0270E166E000E176E000EF6
:103DD000196E010E186E290EC7EC6EF0000E276EDC
:103DE000310E286E270E166E000E176E000E196E1D
:103DF000020E186E290E22EC6EF0270E166E000EC3
:103E0000176E000E196E010E186E290EC7EC6EF0BB
:103E1000000E276E310E286E270E166E000E176EDE
:103E2000000E196E020E186E290E22EC6EF0270E8F
:103E3000166E000E176E000E196E010E186E290E0A
:103E4000C7EC6EF0000E276E310E286E270E166E30
:103E5000000E176E000E196E020E186E290E22EC5F
:103E60006EF0270E166E000E176E000E196E010E04
:103E7000186E290EC7EC6EF0000E276E310E286EFC
:103E8000270E166E000E176E000E196E020E186EBB
:103E9000290E22EC6EF0270E166E000E176E000E25
:103EA000196E010E186E290EC7EC6EF0000E276E0B
:103EB000310E286E270E166E000E176E000E196E4C
:103EC000020E186E290E22EC6EF0270E166E000EF2
:103ED000176E000E196E010E186E290EC7EC6EF0EB
:103EE000000E276E310E286E270E166E000E176E0E
:103EF000000E196E020E186E290E22EC6EF0270EBF
:103F0000166E000E176E000E196E010E186E290E39
:103F1000C7EC6EF0000E276E310E286E270E166E5F
:103F2000000E176E000E196E020E186E290E22EC8E
:103F30006EF0270E166E000E176E000E196E010E33
:103F4000186E290EC7EC6EF0000E276E310E286E2B
:103F5000270E166E000E176E000E196E020E186EEA
:103F6000290E22EC6EF0270E166E000E176E000E54
:103F7000196E010E186E290EC7EC6EF0000E276E3A
:103F8000310E286E270E166E000E176E000E196E7B
:103F9000020E186E290E22EC6EF0270E166E000E21
:103FA000176E000E196E010E186E290EC7EC6EF01A
:103FB000000E276E310E286E270E166E000E176E3D
:103FC000000E196E020E186E290E22EC6EF0270EEE
:103FD000166E000E176E000E196E010E186E290E69
:103FE000C7EC6EF0000E276E310E286E270E166E8F
:103FF000000E176E000E196E020E186E290E22ECBE
:104000006EF0270E166E000E176E000E196E010E62
:10401000186E290EC7EC6EF0000E276E310E286E5A
:10402000270E166E000E176E000E196E020E186E19
:10403000290E22EC6EF0270E166E000E176E000E83
:10404000196E010E186E290EC7EC6EF0000E276E69
:10405000310E286E270E166E000E176E000E196EAA
:10406000020E186E290E22EC6EF0270E166E000E50
:10407000176E000E196E010E186E290EC7EC6EF049
:10408000000E276E310E286E270E166E000E176E6C
:10409000000E196E020E186E290E22EC6EF0270E1D
:1040A000166E000E176E000E196E010E186E290E98
:1040B000C7EC6EF0000E276E310E286E270E166EBE
:1040C000000E176E000E196E020E186E290E22ECED
:1040D0006EF0270E166E000E176E000E196E010E92
:1040E000186E290EC7EC6EF0000E276E310E286E8A
:1040F000270E166E000E176E000E196E020E186E49
:10410000290E22EC6EF0270E166E000E176E000EB2
:10411000196E010E186E290EC7EC6EF0000E276E98
:10412000310E286E270E166E000E176E000E196ED9
:10413000020E186E290E22EC6EF0270E166E000E7F
:10414000176E000E196E010E186E290EC7EC6EF078
:10415000000E276E310E286E270E166E000E176E9B
:10416000000E196E020E186E290E22EC6EF0270E4C
:10417000166E000E176E000E196E010E186E290EC7
:10418000C7EC6EF0000E276E310E286E270E166EED
:10419000000E176E000E196E020E186E290E22EC1C
:1041A0006EF0270E166E000E176E000E196E010EC1
:1041B000186E290EC7EC6EF0000E276E310E286EB9
:1041C000270E166E000E176E000E196E020E186E78
:1041D000290E22EC6EF0270E166E000E176E000EE2
:1041E000196E010E186E290EC7EC6EF0000E276EC8
:1041F000310E286E270E166E000E176E000E196E09
:10420000020E186E290E22EC6EF0270E166E000EAE
:10421000176E000E196E010E186E290EC7EC6EF0A7
:10422000000E276E310E286E270E166E000E176ECA
:10423000000E196E020E186E290E22EC6EF0270E7B
:10424000166E000E176E000E196E010E186E290EF6
:10425000C7EC6EF0000E276E310E286E270E166E1C
:10426000000E176E000E196E020E186E290E22EC4B
:104270006EF0270E166E000E176E000E196E010EF0
:10428000186E290EC7EC6EF0000E276E310E286EE8
:10429000270E166E000E176E000E196E020E186EA7
:1042A000290E22EC6EF0270E166E000E176E000E11
:1042B000196E010E186E290EC7EC6EF0000E276EF7
:1042C000310E286E270E166E000E176E000E196E38
:1042D000020E186E290E22EC6EF0270E166E000EDE
:1042E000176E000E196E010E186E290EC7EC6EF0D7
:1042F000000E276E310E286E270E166E000E176EFA
:10430000000E196E020E186E290E22EC6EF0270EAA
:10431000166E000E176E000E196E010E186E290E25
:10432000C7EC6EF0000E276E310E286E270E166E4B
:10433000000E176E000E196E020E186E290E22EC7A
:104340006EF0270E166E000E176E000E196E010E1F
:10435000186E290EC7EC6EF0000E276E310E286E17
:10436000270E166E000E176E000E196E020E186ED6
:10437000290E22EC6EF0270E166E000E176E000E40
:10438000196E010E186E290EC7EC6EF0000E276E26
:10439000310E286E270E166E000E176E000E196E67
:1043A000020E186E290E22EC6EF0270E166E000E0D
:1043B000176E000E196E020E186E290EC7EC6EF005
:1043C000000E276E310E286E270E166E000E176E29
:1043D000000E196E020E186E290E22EC6EF0270EDA
:1043E000166E000E176E000E196E010E186E290E55
:1043F000C7EC6EF0000E276E310E286E270E166E7B
:10440000000E176E000E196E020E186E290E22ECA9
:104410006EF0270E166E000E176E000E196E010E4E
:10442000186E290EC7EC6EF0000E276E310E286E46
:10443000270E166E000E176E000E196E020E186E05
:10444000290E22EC6EF0270E166E000E176E000E6F
:10445000196E010E186E290EC7EC6EF0000E276E55
:10446000310E286E270E166E000E176E000E196E96
:10447000020E186E290E22EC6EF0270E166E000E3C
:10448000176E000E196E010E186E290EC7EC6EF035
:10449000000E276E310E286E270E166E000E176E58
:1044A000000E196E020E186E290E22EC6EF0270E09
:1044B000166E000E176E000E196E010E186E290E84
:1044C000C7EC6EF0000E276E310E286E270E166EAA
:1044D000000E176E000E196E020E186E290E22ECD9
:1044E0006EF0270E166E000E176E000E196E010E7E
:1044F000186E290EC7EC6EF0000E276E310E286E76
:10450000270E166E000E176E000E196E020E186E34
:10451000290E22EC6EF0270E166E000E176E000E9E
:10452000196E010E186E290EC7EC6EF0000E276E84
:10453000310E286E270E166E000E176E000E196EC5
:10454000020E186E290E22EC6EF0270E166E000E6B
:10455000176E000E196E010E186E290EC7EC6EF064
:10456000000E276E310E286E270E166E000E176E87
:10457000000E196E020E186E290E22EC6EF0270E38
:10458000166E000E176E000E196E010E186E290EB3
:10459000C7EC6EF0000E276E310E286E270E166ED9
:1045A000000E176E000E196E020E186E290E22EC08
:1045B0006EF0270E166E000E176E000E196E010EAD
:1045C000186E290EC7EC6EF0000E276E310E286EA5
:1045D000270E166E000E176E000E196E020E186E64
:1045E000290E22EC6EF0270E166E000E176E000ECE
:1045F000196E010E186E290EC7EC6EF0000E276EB4
:10460000310E286E270E166E000E176E000E196EF4
:10461000020E186E290E22EC6EF0270E166E000E9A
:10462000176E000E196E010E186E290EC7EC6EF093
:10463000000E276E310E286E270E166E000E176EB6
:10464000000E196E020E186E290E22EC6EF0270E67
:10465000166E000E176E000E196E010E186E290EE2
:10466000C7EC6EF0000E276E310E286E270E166E08
:10467000000E176E000E196E020E186E290E22EC37
:104680006EF0270E166E000E176E000E196E010EDC
:10469000186E290EC7EC6EF0000E276E310E286ED4
:1046A000270E166E000E176E000E196E020E186E93
:1046B000290E22EC6EF0270E166E000E176E000EFD
:1046C000196E010E186E290EC7EC6EF0000E276EE3
:1046D000310E286E270E166E000E176E000E196E24
:1046E000020E186E290E22EC6EF0270E166E000ECA
:1046F000176E000E196E010E186E290EC7EC6EF0C3
:10470000000E276E310E286E270E166E000E176EE5
:10471000000E196E020E186E290E22EC6EF0270E96
:10472000166E000E176E000E196E010E186E290E11
:10473000C7EC6EF0000E276E310E286E270E166E37
:10474000000E176E000E196E020E186E290E22EC66
:104750006EF0270E166E000E176E000E196E010E0B
:10476000186E290EC7EC6EF0000E276E310E286E03
:10477000270E166E000E176E000E196E020E186EC2
:10478000290E22EC6EF0270E166E000E176E000E2C
:10479000196E010E186E290EC7EC6EF0000E276E12
:1047A000310E286E270E166E000E176E000E196E53
:1047B000020E186E290E22EC6EF0270E166E000EF9
:1047C000176E000E196E010E186E290EC7EC6EF0F2
:1047D000000E276E310E286E270E166E000E176E15
:1047E000000E196E020E186E290E22EC6EF0270EC6
:1047F000166E000E176E000E196E010E186E290E41
:10480000C7EC6EF0000E276E310E286E270E166E66
:10481000000E176E000E196E020E186E290E22EC95
:104820006EF0270E166E000E176E000E196E010E3A
:10483000186E290EC7EC6EF0000E276E310E286E32
:10484000270E166E000E176E000E196E020E186EF1
:10485000290E22EC6EF0270E166E000E176E000E5B
:10486000196E010E186E290EC7EC6EF0000E276E41
:10487000310E286E270E166E000E176E000E196E82
:10488000020E186E290E22EC6EF0270E166E000E28
:10489000176E000E196E010E186E290EC7EC6EF021
:1048A000000E276E310E286E270E166E000E176E44
:1048B000000E196E020E186E290E22EC6EF0270EF5
:1048C000166E000E176E000E196E010E186E290E70
:1048D000C7EC6EF0000E276E310E286E270E166E96
:1048E000000E176E000E196E020E186E290E22ECC5
:1048F0006EF0270E166E000E176E000E196E010E6A
:10490000186E290EC7EC6EF0000E276E310E286E61
:10491000270E166E000E176E000E196E020E186E20
:10492000290E22EC6EF0270E166E000E176E000E8A
:10493000196E010E186E290EC7EC6EF0000E276E70
:10494000310E286E270E166E000E176E000E196EB1
:10495000020E186E290E22EC6EF0270E166E000E57
:10496000176E000E196E010E186E290EC7EC6EF050
:10497000000E276E310E286E270E166E000E176E73
:10498000000E196E020E186E290E22EC6EF0270E24
:10499000166E000E176E000E196E010E186E290E9F
:1049A000C7EC6EF0000E276E310E286E270E166EC5
:1049B000000E176E000E196E020E186E290E22ECF4
:1049C0006EF0270E166E000E176E000E196E010E99
:1049D000186E290EC7EC6EF0000E276E310E286E91
:1049E000270E166E000E176E000E196E020E186E50
:1049F000290E22EC6EF0270E166E000E176E000EBA
:104A0000196E010E186E290EC7EC6EF0000E276E9F
:104A1000310E286E270E166E000E176E000E196EE0
:104A2000020E186E290E22EC6EF0270E166E000E86
:104A3000176E000E196E010E186E290EC7EC6EF07F
:104A4000000E276E310E286E270E166E000E176EA2
:104A5000000E196E020E186E290E22EC6EF0270E53
:104A6000166E000E176E000E196E010E186E290ECE
:104A7000C7EC6EF0000E276E310E286E270E166EF4
:104A8000000E176E000E196E020E186E290E22EC23
:104A90006EF0270E166E000E176E000E196E010EC8
:104AA000186E290EC7EC6EF0000E276E310E286EC0
:104AB000270E166E000E176E000E196E020E186E7F
:104AC000290E22EC6EF0270E166E000E176E000EE9
:104AD000196E010E186E290EC7EC6EF0000E276ECF
:104AE000310E286E270E166E000E176E000E196E10
:104AF000020E186E290E22EC6EF0270E166E000EB6
:104B0000176E000E196E010E186E290EC7EC6EF0AE
:104B1000000E276E310E286E270E166E000E176ED1
:104B2000000E196E020E186E290E22EC6EF0270E82
:104B3000166E000E176E000E196E010E186E290EFD
:104B4000C7EC6EF0000E276E310E286E270E166E23
:104B5000000E176E000E196E020E186E290E22EC52
:104B60006EF0270E166E000E176E000E196E010EF7
:104B7000186E290EC7EC6EF0000E276E310E286EEF
:104B8000270E166E000E176E000E196E020E186EAE
:104B9000290E22EC6EF0270E166E000E176E000E18
:104BA000196E010E186E290EC7EC6EF0000E276EFE
:104BB000310E286E270E166E000E176E000E196E3F
:104BC000020E186E290E22EC6EF0270E166E000EE5
:104BD000176E000E196E010E186E290EC7EC6EF0DE
:104BE000000E276E310E286E270E166E000E176E01
:104BF000000E196E020E186E290E22EC6EF0270EB2
:104C0000166E000E176E000E196E010E186E290E2C
:104C1000C7EC6EF0000E276E310E286E270E166E52
:104C2000000E176E000E196E020E186E290E22EC81
:104C30006EF0270E166E000E176E000E196E010E26
:104C4000186E290EC7EC6EF0000E276E310E286E1E
:104C5000270E166E000E176E000E196E020E186EDD
:104C6000290E22EC6EF0270E166E000E176E000E47
:104C7000196E010E186E290EC7EC6EF0000E276E2D
:104C8000310E286E270E166E000E176E000E196E6E
:104C9000020E186E290E22EC6EF0270E166E000E14
:104CA000176E000E196E010E186E290EC7EC6EF00D
:104CB000000E276E310E286E270E166E000E176E30
:104CC000000E196E020E186E290E22EC6EF0270EE1
:104CD000166E000E176E000E196E010E186E290E5C
:104CE000C7EC6EF0000E276E310E286E270E166E82
:104CF000000E176E000E196E020E186E290E22ECB1
:104D00006EF0270E166E000E176E000E196E010E55
:104D1000186E290EC7EC6EF0000E276E310E286E4D
:104D2000270E166E000E176E000E196E020E186E0C
:104D3000290E22EC6EF0270E166E000E176E000E76
:104D4000196E010E186E290EC7EC6EF0000E276E5C
:104D5000310E286E270E166E000E176E000E196E9D
:104D6000020E186E290E22EC6EF0270E166E000E43
:104D7000176E000E196E010E186E290EC7EC6EF03C
:104D8000000E276E310E286E270E166E000E176E5F
:104D9000000E196E020E186E290E22EC6EF0270E10
:104DA000166E000E176E000E196E020E186E290E8A
:104DB000C7EC6EF0000E276E310E286E270E166EB1
:104DC000000E176E000E196E020E186E290E22ECE0
:104DD0006EF0270E166E000E176E000E196E010E85
:104DE000186E290EC7EC6EF0000E276E310E286E7D
:104DF000270E166E000E176E000E196E020E186E3C
:104E0000290E22EC6EF0270E166E000E176E000EA5
:104E1000196E010E186E290EC7EC6EF0000E276E8B
:104E2000310E286E270E166E000E176E000E196ECC
:104E3000020E186E290E22EC6EF0270E166E000E72
:104E4000176E000E196E010E186E290EC7EC6EF06B
:104E5000000E276E310E286E270E166E000E176E8E
:104E6000000E196E020E186E290E22EC6EF0270E3F
:104E7000166E000E176E000E196E010E186E290EBA
:104E8000C7EC6EF0000E276E310E286E270E166EE0
:104E9000000E176E000E196E020E186E290E22EC0F
:104EA0006EF0270E166E000E176E000E196E010EB4
:104EB000186E290EC7EC6EF0000E276E310E286EAC
:104EC000270E166E000E176E000E196E020E186E6B
:104ED000290E22EC6EF0270E166E000E176E000ED5
:104EE000196E010E186E290EC7EC6EF0000E276EBB
:104EF000310E286E270E166E000E176E000E196EFC
:104F0000020E186E290E22EC6EF0270E166E000EA1
:104F1000176E000E196E010E186E290EC7EC6EF09A
:104F2000000E276E310E286E270E166E000E176EBD
:104F3000000E196E020E186E290E22EC6EF0270E6E
:104F4000166E000E176E000E196E010E186E290EE9
:104F5000C7EC6EF0000E276E310E286E270E166E0F
:104F6000000E176E000E196E020E186E290E22EC3E
:104F70006EF0270E166E000E176E000E196E010EE3
:104F8000186E290EC7EC6EF0000E276E310E286EDB
:104F9000270E166E000E176E000E196E020E186E9A
:104FA000290E22EC6EF0270E166E000E176E000E04
:104FB000196E010E186E290EC7EC6EF0000E276EEA
:104FC000310E286E270E166E000E176E000E196E2B
:104FD000020E186E290E22EC6EF0270E166E000ED1
:104FE000176E000E196E010E186E290EC7EC6EF0CA
:104FF000000E276E310E286E270E166E000E176EED
:10500000000E196E020E186E290E22EC6EF0270E9D
:10501000166E000E176E000E196E010E186E290E18
:10502000C7EC6EF0000E276E310E286E270E166E3E
:10503000000E176E000E196E020E186E290E22EC6D
:105040006EF0270E166E000E176E000E196E010E12
:10505000186E290EC7EC6EF0000E276E310E286E0A
:10506000270E166E000E176E000E196E020E186EC9
:10507000290E22EC6EF0270E166E000E176E000E33
:10508000196E010E186E290EC7EC6EF0000E276E19
:10509000310E286E270E166E000E176E000E196E5A
:1050A000020E186E290E22EC6EF0270E166E000E00
:1050B000176E000E196E010E186E290EC7EC6EF0F9
:1050C000000E276E310E286E270E166E000E176E1C
:1050D000000E196E020E186E290E22EC6EF0270ECD
:1050E000166E000E176E000E196E010E186E290E48
:1050F000C7EC6EF0000E276E310E286E270E166E6E
:10510000000E176E000E196E020E186E290E22EC9C
:105110006EF0270E166E000E176E000E196E010E41
:10512000186E290EC7EC6EF0000E276E310E286E39
:10513000270E166E000E176E000E196E020E186EF8
:10514000290E22EC6EF0270E166E000E176E000E62
:10515000196E010E186E290EC7EC6EF0000E276E48
:10516000310E286E270E166E000E176E000E196E89
:10517000020E186E290E22EC6EF0270E166E000E2F
:10518000176E000E196E010E186E290EC7EC6EF028
:10519000000E276E310E286E270E166E000E176E4B
:1051A000000E196E020E186E290E22EC6EF0270EFC
:1051B000166E000E176E000E196E010E186E290E77
:1051C000C7EC6EF0000E276E310E286E270E166E9D
:1051D000000E176E000E196E020E186E290E22ECCC
:1051E0006EF0270E166E000E176E000E196E010E71
:1051F000186E290EC7EC6EF0000E276E310E286E69
:10520000270E166E000E176E000E196E020E186E27
:10521000290E22EC6EF0270E166E000E176E000E91
:10522000196E010E186E290EC7EC6EF0000E276E77
:10523000310E286E270E166E000E176E000E196EB8
:10524000020E186E290E22EC6EF0270E166E000E5E
:10525000176E000E196E010E186E290EC7EC6EF057
:10526000000E276E310E286E270E166E000E176E7A
:10527000000E196E020E186E290E22EC6EF0030E4F
:10528000276E270E166E000E176E000E196E010E99
:10529000186E290EC7EC6EF0000E276E310E286EC8
:1052A000270E166E000E176E000E196E020E186E87
:1052B000290E22EC6EF0270E166E000E176E000EF1
:1052C000196E010E186E290EC7EC6EF0000E276ED7
:1052D000310E286E270E166E000E176E000E196E18
:1052E000020E186E290E22EC6EF0270E166E000EBE
:1052F000176E000E196E010E186E290EC7EC6EF0B7
:10530000000E276E310E286E270E166E000E176ED9
:10531000000E196E020E186E290E22EC6EF0270E8A
:10532000166E000E176E000E196E010E186E290E05
:10533000C7EC6EF0000E276E310E286E270E166E2B
:10534000000E176E000E196E020E186E290E22EC5A
:105350006EF0270E166E000E176E000E196E010EFF
:10536000186E290EC7EC6EF0000E276E310E286EF7
:10537000270E166E000E176E000E196E020E186EB6
:10538000290E22EC6EF0270E166E000E176E000E20
:10539000196E010E186E290EC7EC6EF0000E276E06
:1053A000310E286E270E166E000E176E000E196E47
:1053B000020E186E290E22EC6EF0270E166E000EED
:1053C000176E000E196E010E186E290EC7EC6EF0E6
:1053D000000E276E310E286E270E166E000E176E09
:1053E000000E196E020E186E290E22EC6EF0270EBA
:1053F000166E000E176E000E196E010E186E290E35
:10540000C7EC6EF0000E276E310E286E270E166E5A
:10541000000E176E000E196E020E186E290E22EC89
:105420006EF0270E166E000E176E000E196E010E2E
:10543000186E290EC7EC6EF0000E276E310E286E26
:10544000270E166E000E176E000E196E020E186EE5
:10545000290E22EC6EF0270E166E000E176E000E4F
:10546000196E010E186E290EC7EC6EF0000E276E35
:10547000310E286E270E166E000E176E000E196E76
:10548000020E186E290E22EC6EF0270E166E000E1C
:10549000176E000E196E010E186E290EC7EC6EF015
:1054A000000E276E310E286E270E166E000E176E38
:1054B000000E196E020E186E290E22EC6EF0270EE9
:1054C000166E000E176E000E196E010E186E290E64
:1054D000C7EC6EF0000E276E310E286E270E166E8A
:1054E000000E176E000E196E020E186E290E22ECB9
:1054F0006EF0270E166E000E176E000E196E010E5E
:10550000186E290EC7EC6EF0000E276E310E286E55
:10551000270E166E000E176E000E196E020E186E14
:10552000290E22EC6EF0270E166E000E176E000E7E
:10553000196E010E186E290EC7EC6EF0000E276E64
:10554000310E286E270E166E000E176E000E196EA5
:10555000020E186E290E22EC6EF0270E166E000E4B
:10556000176E000E196E010E186E290EC7EC6EF044
:10557000000E276E310E286E270E166E000E176E67
:10558000000E196E020E186E290E22EC6EF0270E18
:10559000166E000E176E000E196E010E186E290E93
:1055A000C7EC6EF0000E276E310E286E270E166EB9
:1055B000000E176E000E196E020E186E290E22ECE8
:1055C0006EF0270E166E000E176E000E196E010E8D
:1055D000186E290EC7EC6EF0000E276E310E286E85
:1055E000270E166E000E176E000E196E020E186E44
:1055F000290E22EC6EF0270E166E000E176E000EAE
:10560000196E010E186E290EC7EC6EF0000E276E93
:10561000310E286E270E166E000E176E000E196ED4
:10562000020E186E290E22EC6EF0270E166E000E7A
:10563000176E000E196E010E186E290EC7EC6EF073
:10564000000E276E310E286E270E166E000E176E96
:10565000000E196E020E186E290E22EC6EF0270E47
:10566000166E000E176E000E196E010E186E290EC2
:10567000C7EC6EF0000E276E310E286E270E166EE8
:10568000000E176E000E196E020E186E290E22EC17
:105690006EF0270E166E000E176E000E196E010EBC
:1056A000186E290EC7EC6EF0000E276E310E286EB4
:1056B000270E166E000E176E000E196E020E186E73
:1056C000290E22EC6EF0270E166E000E176E000EDD
:1056D000196E010E186E290EC7EC6EF0000E276EC3
:1056E000310E286E270E166E000E176E000E196E04
:1056F000020E186E290E22EC6EF0270E166E000EAA
:10570000176E000E196E010E186E290EC7EC6EF0A2
:10571000000E276E310E286E270E166E000E176EC5
:10572000000E196E020E186E290E22EC6EF0270E76
:10573000166E000E176E000E196E010E186E290EF1
:10574000C7EC6EF0000E276E310E286E270E166E17
:10575000000E176E000E196E020E186E290E22EC46
:105760006EF0270E166E000E176E000E196E010EEB
:10577000186E290EC7EC6EF0000E276E310E286EE3
:10578000270E166E000E176E000E196E020E186EA2
:10579000290E22EC6EF0270E166E000E176E000E0C
:1057A000196E010E186E290EC7EC6EF0000E276EF2
:1057B000310E286E270E166E000E176E000E196E33
:1057C000020E186E290E22EC6EF0270E166E000ED9
:1057D000176E000E196E010E186E290EC7EC6EF0D2
:1057E000000E276E310E286E270E166E000E176EF5
:1057F000000E196E020E186E290E22EC6EF0270EA6
:10580000166E000E176E000E196E010E186E290E20
:10581000C7EC6EF0000E276E310E286E270E166E46
:10582000000E176E000E196E020E186E290E22EC75
:105830006EF0270E166E000E176E000E196E010E1A
:10584000186E290EC7EC6EF0000E276E310E286E12
:10585000270E166E000E176E000E196E020E186ED1
:10586000290E22EC6EF0270E166E000E176E000E3B
:10587000196E010E186E290EC7EC6EF0000E276E21
:10588000310E286E270E166E000E176E000E196E62
:10589000020E186E290E22EC6EF0270E166E000E08
:1058A000176E000E196E010E186E290EC7EC6EF001
:1058B000000E276E310E286E270E166E000E176E24
:1058C000000E196E020E186E290E22EC6EF0270ED5
:1058D000166E000E176E000E196E010E186E290E50
:1058E000C7EC6EF0000E276E310E286E270E166E76
:1058F000000E176E000E196E020E186E290E22ECA5
:105900006EF0270E166E000E176E000E196E010E49
:10591000186E290EC7EC6EF0000E276E310E286E41
:10592000270E166E000E176E000E196E020E186E00
:10593000290E22EC6EF0270E166E000E176E000E6A
:10594000196E010E186E290EC7EC6EF0000E276E50
:10595000310E286E270E166E000E176E000E196E91
:10596000020E186E290E22EC6EF0270E166E000E37
:10597000176E000E196E010E186E290EC7EC6EF030
:10598000000E276E310E286E270E166E000E176E53
:10599000000E196E020E186E290E22EC6EF0270E04
:1059A000166E000E176E000E196E010E186E290E7F
:1059B000C7EC6EF0000E276E310E286E270E166EA5
:1059C000000E176E000E196E020E186E290E22ECD4
:1059D0006EF0270E166E000E176E000E196E010E79
:1059E000186E290EC7EC6EF0000E276E310E286E71
:1059F000270E166E000E176E000E196E020E186E30
:105A0000290E22EC6EF0270E166E000E176E000E99
:105A1000196E010E186E290EC7EC6EF0000E276E7F
:105A2000310E286E270E166E000E176E000E196EC0
:105A3000020E186E290E22EC6EF0270E166E000E66
:105A4000176E000E196E010E186E290EC7EC6EF05F
:105A5000000E276E310E286E270E166E000E176E82
:105A6000000E196E020E186E290E22EC6EF0270E33
:105A7000166E000E176E000E196E010E186E290EAE
:105A8000C7EC6EF0000E276E310E286E270E166ED4
:105A9000000E176E000E196E020E186E290E22EC03
:105AA0006EF0270E166E000E176E000E196E010EA8
:105AB000186E290EC7EC6EF0000E276E310E286EA0
:105AC000270E166E000E176E000E196E020E186E5F
:105AD000290E22EC6EF0270E166E000E176E000EC9
:105AE000196E010E186E290EC7EC6EF0000E276EAF
:105AF000310E286E270E166E000E176E000E196EF0
:105B0000020E186E290E22EC6EF0270E166E000E95
:105B1000176E000E196E010E186E290EC7EC6EF08E
:105B2000000E276E310E286E270E166E000E176EB1
:105B3000000E196E020E186E290E22EC6EF0270E62
:105B4000166E000E176E000E196E010E186E290EDD
:105B5000C7EC6EF0000E276E310E286E270E166E03
:105B6000000E176E000E196E020E186E290E22EC32
:105B70006EF0270E166E000E176E000E196E010ED7
:105B8000186E290EC7EC6EF0000E276E310E286ECF
:105B9000270E166E000E176E000E196E020E186E8E
:105BA000290E22EC6EF0270E166E000E176E000EF8
:105BB000196E010E186E290EC7EC6EF0000E276EDE
:105BC000960E286E270E166E000E176E000E196EBA
:105BD000020E186E290E22EC6EF0600E166E010E8B
:105BE000176E000E196E110E186E290EC7EC6EF0AE
:105BF000000E276E0B0E286E270E166E000E176E07
:105C0000000E196E020E186E290E22EC6EF0270E91
:105C1000166E000E176E000E196E010E186E290E0C
:105C2000C7EC6EF0000E276E080E286E270E166E5B
:105C3000000E176E000E196E020E186E290E22EC61
:105C40006EF0270E166E000E176E000E196E010E06
:105C5000186E290EC7EC6EF0000E276E0B0E286E24
:105C6000160E296E270E166E000E176E000E196E98
:105C7000030E186E290E22EC6EF0000E276E080E31
:105C8000286E0D0E296E270E166E000E176E000E72
:105C9000196E030E186E290E22EC6EF0000E276EA0
:105CA0004D0E286E010E296E270E166E000E176E11
:105CB000000E196E030E186E290E22EC6EF0000E07
:105CC000276ED80E286E270E166E000E176E000E69
:105CD000196E020E186E290E22EC6EF0270E166E4B
:105CE000000E176E000E196E010E186E290EC7EC0D
:105CF0006EF0000E276E470E286E0B0E296E270ED3
:105D0000166E000E176E000E196E030E186E290E19
:105D100022EC6EF0000E276E540E286E130E296EC4
:105D2000100E2A6E270E166E000E176E000E196EDC
:105D3000040E186E290E22EC6EF0000E276E860EF1
:105D4000286E010E296E270E166E000E176E000EBD
:105D5000196E030E186E290E22EC6EF001016051CF
:105D6000206E1F6A61511F24256E000E2020266EB2
:105D700025C005F026C006F0076A086A000E3BEC55
:105D800065F005C021F006C022F007C023F008C06E
:105D900024F021C01BF022C01CF023C01DF024C041
:105DA0001EF01200010E1C6E0F0E1D6E1C0E166EE4
:105DB000000E176E000E196E020E186E290E22ECE0
:105DC0006EF01C0E166E000E176E000E196E020E8F
:105DD000186E290EC7EC6EF0000E1C6E000E1D6EC4
:105DE000000E1E6E1C0E166E000E176E000E196E43
:105DF000030E186E290E22EC6EF0000E1C6E000EC3
:105E00001D6E010E1E6E1C0E166E000E176E000E1D
:105E1000196E030E186E290E22EC6EF0000E1C6E29
:105E2000E50E1D6E1C0E166E000E176E000E196E1E
:105E3000020E186E290E22EC6EF01C0E166E000E6D
:105E4000176E000E196E010E186E290EC7EC6EF05B
:105E5000000E1C6E2E0E1D6E1C0E166E000E176EA2
:105E6000000E196E020E186E290E22EC6EF01C0E3A
:105E7000166E000E176E000E196E010E186E290EAA
:105E8000C7EC6EF0000E1C6E2E0E1D6E010E1E6E07
:105E90001C0E166E000E176E000E196E030E186E95
:105EA000290E22EC6EF0000E1C6E060E1D6E1C0EEE
:105EB000166E000E176E000E196E020E186E290E69
:105EC00022EC6EF01C0E166E000E176E000E196E90
:105ED000020E186E290EC7EC6EF0000E1C6EDE0E60
:105EE0001D6E1C0E166E000E176E000E196E020E41
:105EF000186E290E22EC6EF01C0E166E000E176E38
:105F0000000E196E020E186E290EC7EC6EF0000E10
:105F10001C6E240E1D6E0A0E1E6E000E1F6E1C0ED1
:105F2000166E000E176E000E196E040E186E290EF6
:105F300022EC6EF0000E1C6E310E1D6E020E1E6EF7
:105F40001C0E166E000E176E000E196E030E186EE4
:105F5000290E22EC6EF0000E1C6E360E1D6E080E21
:105F60001E6E1C0E166E000E176E000E196E030EBE
:105F7000186E290E22EC6EF0000E1C6E370E1D6E90
:105F8000100E1E6E1C0E166E000E176E000E196E91
:105F9000030E186E290E22EC6EF0000E1C6E390EE8
:105FA0001D6E010E1E6E1C0E166E000E176E000E7C
:105FB000196E030E186E290E22EC6EF0000E1C6E88
:105FC0003E0E1D6E1E681C0E166E000E176E000E25
:105FD000196E030E186E290E22EC6EF0000E1C6E68
:105FE0003F0E1D6E000E1E6E1C0E166E000E176EFE
:105FF000000E196E030E186E290E22EC6EF0000EC4
:106000001C6E400E1D6E020E1E6E1C0E166E000ED5
:10601000176E000E196E030E186E290E22EC6EF02C
:10602000000E1C6E500E1D6E000E1E6E000E1F6EBA
:106030001C0E166E000E176E000E196E040E186EF2
:10604000290E22EC6EF0000E1C6E520E1D6E000E1C
:106050001E6E000E1F6E1C0E166E000E176E000ECA
:10606000196E040E186E290E22EC6EF0000E1C6ED6
:10607000570E1D6E380E1E6E1C0E166E000E176E1D
:10608000000E196E030E186E290E22EC6EF0000E33
:106090001C6E640E1D6E010E1E6E680E1F6E1C0EB1
:1060A000166E000E176E000E196E040E186E290E75
:1060B00022EC6EF0000E1C6E660E1D6E000E1E6E43
:1060C000C00E1F6E1C0E166E000E176E000E196E9F
:1060D000040E186E290E22EC6EF0000E1C6E710E6E
:1060E0001D6E010E1E6E1C0E166E000E176E000E3B
:1060F000196E030E186E290E22EC6EF0000E1C6E47
:106100007C0E1D6E010E1E6E1C0E166E000E176E9E
:10611000000E196E030E186E290E22EC6EF0000EA2
:106120001C6E7E0E1D6E020E1E6E1C0E166E000E76
:10613000176E000E196E030E186E290E22EC6EF00B
:10614000000E1C6E820E1D6E000E1E6E1C0E166E54
:10615000000E176E000E196E030E186E290E22EC3B
:106160006EF0000E1C6E770E1D6E010E1E6E1C0E64
:10617000166E000E176E000E196E030E186E290EA5
:1061800022EC6EF0000E1C6E810E1D6E8B0E1E6ECC
:106190001C0E166E000E176E000E196E030E186E92
:1061A000290E22EC6EF0000E1C6E540E1D6EC80EF1
:1061B0001E6E000E1F6E1C0E166E000E176E000E69
:1061C000196E040E186E290E22EC6EF0000E1C6E75
:1061D0004F0E1D6E020E1E6E1C0E166E000E176EFA
:1061E000000E196E030E186E290E22EC6EF0000ED2
:1061F0001C6E600E1D6E1C0E166E000E176E000ECD
:10620000196E020E186E290E22EC6EF01C0E166E20
:10621000000E176E000E196E010E186E290EC7ECD7
:106220006EF0000E1C6E5E0E1D6E1C0E166E000EC5
:10623000176E000E196E020E186E290E22EC6EF00B
:106240001C0E166E000E176E000E196E020E186EE2
:10625000290EC7EC6EF0000E1C6E600E1D6E0F0E48
:106260001E6E1C0E166E000E176E000E196E030EBB
:10627000186E290E22EC6EF0000E1C6E630E1D6E61
:106280000D0E1E6E1C0E166E000E176E000E196E91
:10629000030E186E290E22EC6EF0000E1C6E690EB5
:1062A0001D6EB80E1E6E1C0E166E000E176E000EC2
:1062B000196E030E186E290E22EC6EF0000E1C6E85
:1062C000780E1D6E0F0E1E6E1C0E166E000E176ED3
:1062D000000E196E030E186E290E22EC6EF0000EE1
:1062E0001C6E790E1D6E0D0E1E6E1C0E166E000EAF
:1062F000176E000E196E030E186E290E22EC6EF04A
:10630000000E1C6E7A0E1D6E0E0E1E6E1C0E166E8C
:10631000000E176E000E196E030E186E290E22EC79
:106320006EF0000E1C6E7B0E1D6E0E0E1E6E1C0E91
:10633000166E000E176E000E196E030E186E290EE3
:1063400022EC6EF0000E1C6E600E1D6E1C0E166EA2
:10635000000E176E000E196E020E186E290E22EC3A
:106360006EF01C0E166E000E176E000E196E010EEA
:10637000186E290EC7EC6EF0000E1C6E4B0E1D6ED3
:106380000A0E1E6E1C0E166E000E176E000E196E93
:10639000030E186E290E22EC6EF0000E1C6E5A0EC3
:1063A0001D6E000E1E6E000E1F6E1C0E166E000E71
:1063B000176E000E196E040E186E290E22EC6EF088
:1063C000000E1C6E5E0E1D6E010E1E6EC70E1F6E41
:1063D0001C0E166E000E176E000E196E040E186E4F
:1063E000290E22EC6EF0000E1C6E630E1D6E1C0E4C
:1063F000166E000E176E000E196E020E186E290E24
:1064000022EC6EF01C0E166E000E176E000E196E4A
:10641000010E186E290EC7EC6EF0000E1C6E5C0E9D
:106420001D6E000E1E6E000E1F6E1C0E166E000EF0
:10643000176E000E196E040E186E290E22EC6EF007
:10644000000E1C6E610E1D6E010E1E6EE40E1F6EA0
:106450001C0E166E000E176E000E196E040E186ECE
:10646000290E22EC6EF0000E1C6E600E1D6E1C0ECE
:10647000166E000E176E000E196E020E186E290EA3
:1064800022EC6EF01C0E166E000E176E000E196ECA
:10649000010E186E290EC7EC6EF0000E1C6E4B0E2E
:1064A0001D6E0A0E1E6E1C0E166E000E176E000E6E
:1064B000196E030E186E290E22EC6EF0000E1C6E83
:1064C0005A0E1D6E000E1E6E000E1F6E1C0E166EF6
:1064D000000E176E000E196E040E186E290E22ECB7
:1064E0006EF0000E1C6E5E0E1D6E000E1E6EE80E2F
:1064F0001F6E1C0E166E000E176E000E196E040E27
:10650000186E290E22EC6EF0000E1C6E630E1D6ECE
:106510001C0E166E000E176E000E196E020E186E0F
:10652000290E22EC6EF01C0E166E000E176E000E79
:10653000196E010E186E290EC7EC6EF0000E1C6E5F
:106540005C0E1D6E000E1E6E000E1F6E1C0E166E73
:10655000000E176E000E196E040E186E290E22EC36
:106560006EF0000E1C6E610E1D6E010E1E6E840E0E
:106570001F6E1C0E166E000E176E000E196E040EA6
:10658000186E290E22EC6EF0000E1C6E220E1D6E8F
:106590001C0E166E000E176E000E196E020E186E8F
:1065A000290E22EC6EF01C0E166E000E176E000EF9
:1065B000196E020E186E290EC7EC6EF0000E1C6EDE
:1065C0001E0E1D6E000E1E6E5C0E1F6E1C0E166ED5
:1065D000000E176E000E196E040E186E290E22ECB6
:1065E0006EF0000E1C6E600E1D6E1C0E166E000E00
:1065F000176E000E196E020E186E290E22EC6EF048
:106600001C0E166E000E176E000E196E010E186E1F
:10661000290EC7EC6EF0000E1C6E5E0E1D6E1C0E79
:10662000166E000E176E000E196E020E186E290EF1
:1066300022EC6EF01C0E166E000E176E000E196E18
:10664000020E186E290EC7EC6EF0000E1C6E600E66
:106650001D6E0F0E1E6E1C0E166E000E176E000EB7
:10666000196E030E186E290E22EC6EF0000E1C6ED1
:10667000630E1D6E0D0E1E6E1C0E166E000E176E36
:10668000000E196E030E186E290E22EC6EF0000E2D
:106690001C6E690E1D6EB80E1E6E1C0E166E000E60
:1066A000176E000E196E030E186E290E22EC6EF096
:1066B000000E1C6E780E1D6E0F0E1E6E1C0E166EDA
:1066C000000E176E000E196E030E186E290E22ECC6
:1066D0006EF0000E1C6E790E1D6E0D0E1E6E1C0EE1
:1066E000166E000E176E000E196E030E186E290E30
:1066F00022EC6EF0000E1C6E7A0E1D6E0E0E1E6EDB
:106700001C0E166E000E176E000E196E030E186E1C
:10671000290E22EC6EF0000E1C6E7B0E1D6E0E0E0E
:106720001E6E1C0E166E000E176E000E196E030EF6
:10673000186E290E22EC6EF0000E1C6E600E1D6E9F
:106740001C0E166E000E176E000E196E020E186EDD
:10675000290E22EC6EF01C0E166E000E176E000E47
:10676000196E010E186E290EC7EC6EF0000E1C6E2D
:106770004B0E1D6E0A0E1E6E1C0E166E000E176E50
:10678000000E196E030E186E290E22EC6EF0000E2C
:106790001C6E5A0E1D6E000E1E6E000E1F6E1C0E1D
:1067A000166E000E176E000E196E040E186E290E6E
:1067B00022EC6EF0000E1C6E5E0E1D6E000E1E6E44
:1067C000E80E1F6E1C0E166E000E176E000E196E70
:1067D000040E186E290E22EC6EF0000E1C6E630E75
:1067E0001D6E1C0E166E000E176E000E196E020E38
:1067F000186E290E22EC6EF01C0E166E000E176E2F
:10680000000E196E010E186E290EC7EC6EF0000E08
:106810001C6E5C0E1D6E000E1E6E000E1F6E1C0E9A
:10682000166E000E176E000E196E040E186E290EED
:1068300022EC6EF0000E1C6E610E1D6E010E1E6EBF
:10684000840E1F6E1C0E166E000E176E000E196E53
:10685000040E186E290E22EC6EF0000E1C6E600EF7
:106860001D6E1C0E166E000E176E000E196E020EB7
:10687000186E290E22EC6EF01C0E166E000E176EAE
:10688000000E196E010E186E290EC7EC6EF0000E88
:106890001C6E4B0E1D6E0A0E1E6E1C0E166E000E2A
:1068A000176E000E196E030E186E290E22EC6EF094
:1068B000000E1C6E5A0E1D6E000E1E6E000E1F6E18
:1068C0001C0E166E000E176E000E196E040E186E5A
:1068D000290E22EC6EF0000E1C6E5E0E1D6E000E78
:1068E0001E6EE80E1F6E1C0E166E000E176E000E4A
:1068F000196E040E186E290E22EC6EF0000E1C6E3E
:10690000630E1D6E1C0E166E000E176E000E196EB5
:10691000020E186E290E22EC6EF01C0E166E000E82
:10692000176E000E196E010E186E290EC7EC6EF070
:10693000000E1C6E5C0E1D6E000E1E6E000E1F6E95
:106940001C0E166E000E176E000E196E040E186ED9
:10695000290E22EC6EF0000E1C6E610E1D6E010EF3
:106960001E6E840E1F6E1C0E166E000E176E000E2D
:10697000196E040E186E290E22EC6EF0000E1C6EBD
:106980006C0E1D6E000E1E6E000E1F6E070E206E2A
:106990003A0E216E1C0E166E000E176E000E196E4A
:1069A000060E186E290E22EC6EF0000E1C6E860E7E
:1069B0001D6E010E1E6E1C0E166E000E176E000E62
:1069C000196E030E186E290E22EC6EF0000E1C6E6E
:1069D000870E1D6E400E1E6E1C0E166E000E176E7C
:1069E000000E196E030E186E290E22EC6EF0000ECA
:1069F0001C6E310E1D6E1C0E166E000E176E000EF4
:106A0000196E020E186E290E22EC6EF01C0E166E18
:106A1000000E176E000E196E010E186E290EC7ECCF
:106A20006EF0000E1C6E310E1D6E1C0E166E000EEA
